{
  "_format": "hh-sol-artifact-1",
  "contractName": "GameItem",
  "sourceName": "contracts/GameItem.sol",
  "abi": [
    {
      "inputs": [
        {
          "internalType": "string",
          "name": "name_",
          "type": "string"
        },
        {
          "internalType": "string",
          "name": "symbol_",
          "type": "string"
        }
      ],
      "stateMutability": "nonpayable",
      "type": "constructor"
    },
    {
      "anonymous": false,
      "inputs": [
        {
          "indexed": true,
          "internalType": "address",
          "name": "owner",
          "type": "address"
        },
        {
          "indexed": true,
          "internalType": "address",
          "name": "approved",
          "type": "address"
        },
        {
          "indexed": true,
          "internalType": "uint256",
          "name": "tokenId",
          "type": "uint256"
        }
      ],
      "name": "Approval",
      "type": "event"
    },
    {
      "anonymous": false,
      "inputs": [
        {
          "indexed": true,
          "internalType": "address",
          "name": "owner",
          "type": "address"
        },
        {
          "indexed": true,
          "internalType": "address",
          "name": "operator",
          "type": "address"
        },
        {
          "indexed": false,
          "internalType": "bool",
          "name": "approved",
          "type": "bool"
        }
      ],
      "name": "ApprovalForAll",
      "type": "event"
    },
    {
      "anonymous": false,
      "inputs": [
        {
          "indexed": false,
          "internalType": "address",
          "name": "userAddress",
          "type": "address"
        },
        {
          "indexed": false,
          "internalType": "address payable",
          "name": "relayerAddress",
          "type": "address"
        },
        {
          "indexed": false,
          "internalType": "bytes",
          "name": "functionSignature",
          "type": "bytes"
        }
      ],
      "name": "MetaTransactionExecuted",
      "type": "event"
    },
    {
      "anonymous": false,
      "inputs": [
        {
          "indexed": true,
          "internalType": "address",
          "name": "previousOwner",
          "type": "address"
        },
        {
          "indexed": true,
          "internalType": "address",
          "name": "newOwner",
          "type": "address"
        }
      ],
      "name": "OwnershipTransferred",
      "type": "event"
    },
    {
      "anonymous": false,
      "inputs": [
        {
          "indexed": true,
          "internalType": "address",
          "name": "from",
          "type": "address"
        },
        {
          "indexed": true,
          "internalType": "address",
          "name": "to",
          "type": "address"
        },
        {
          "indexed": true,
          "internalType": "uint256",
          "name": "tokenId",
          "type": "uint256"
        }
      ],
      "name": "Transfer",
      "type": "event"
    },
    {
      "inputs": [],
      "name": "ERC712_VERSION",
      "outputs": [
        {
          "internalType": "string",
          "name": "",
          "type": "string"
        }
      ],
      "stateMutability": "view",
      "type": "function"
    },
    {
      "inputs": [
        {
          "internalType": "address",
          "name": "to",
          "type": "address"
        },
        {
          "internalType": "uint256",
          "name": "tokenId",
          "type": "uint256"
        }
      ],
      "name": "approve",
      "outputs": [],
      "stateMutability": "nonpayable",
      "type": "function"
    },
    {
      "inputs": [
        {
          "internalType": "address",
          "name": "owner",
          "type": "address"
        }
      ],
      "name": "balanceOf",
      "outputs": [
        {
          "internalType": "uint256",
          "name": "",
          "type": "uint256"
        }
      ],
      "stateMutability": "view",
      "type": "function"
    },
    {
      "inputs": [],
      "name": "contractURI",
      "outputs": [
        {
          "internalType": "string",
          "name": "",
          "type": "string"
        }
      ],
      "stateMutability": "pure",
      "type": "function"
    },
    {
      "inputs": [
        {
          "internalType": "address",
          "name": "userAddress",
          "type": "address"
        },
        {
          "internalType": "bytes",
          "name": "functionSignature",
          "type": "bytes"
        },
        {
          "internalType": "bytes32",
          "name": "sigR",
          "type": "bytes32"
        },
        {
          "internalType": "bytes32",
          "name": "sigS",
          "type": "bytes32"
        },
        {
          "internalType": "uint8",
          "name": "sigV",
          "type": "uint8"
        }
      ],
      "name": "executeMetaTransaction",
      "outputs": [
        {
          "internalType": "bytes",
          "name": "",
          "type": "bytes"
        }
      ],
      "stateMutability": "payable",
      "type": "function"
    },
    {
      "inputs": [
        {
          "internalType": "uint256",
          "name": "tokenId",
          "type": "uint256"
        }
      ],
      "name": "getApproved",
      "outputs": [
        {
          "internalType": "address",
          "name": "",
          "type": "address"
        }
      ],
      "stateMutability": "view",
      "type": "function"
    },
    {
      "inputs": [
        {
          "internalType": "address",
          "name": "wallet",
          "type": "address"
        }
      ],
      "name": "getBalance",
      "outputs": [
        {
          "internalType": "uint256",
          "name": "",
          "type": "uint256"
        }
      ],
      "stateMutability": "view",
      "type": "function"
    },
    {
      "inputs": [],
      "name": "getChainId",
      "outputs": [
        {
          "internalType": "uint256",
          "name": "",
          "type": "uint256"
        }
      ],
      "stateMutability": "view",
      "type": "function"
    },
    {
      "inputs": [],
      "name": "getDomainSeperator",
      "outputs": [
        {
          "internalType": "bytes32",
          "name": "",
          "type": "bytes32"
        }
      ],
      "stateMutability": "view",
      "type": "function"
    },
    {
      "inputs": [
        {
          "internalType": "address",
          "name": "user",
          "type": "address"
        }
      ],
      "name": "getNonce",
      "outputs": [
        {
          "internalType": "uint256",
          "name": "nonce",
          "type": "uint256"
        }
      ],
      "stateMutability": "view",
      "type": "function"
    },
    {
      "inputs": [
        {
          "internalType": "address",
          "name": "owner",
          "type": "address"
        }
      ],
      "name": "getTokensOfOwner",
      "outputs": [
        {
          "internalType": "string",
          "name": "",
          "type": "string"
        }
      ],
      "stateMutability": "view",
      "type": "function"
    },
    {
      "inputs": [
        {
          "internalType": "address",
          "name": "_owner",
          "type": "address"
        },
        {
          "internalType": "address",
          "name": "_operator",
          "type": "address"
        }
      ],
      "name": "isApprovedForAll",
      "outputs": [
        {
          "internalType": "bool",
          "name": "isOperator",
          "type": "bool"
        }
      ],
      "stateMutability": "view",
      "type": "function"
    },
    {
      "inputs": [
        {
          "internalType": "string",
          "name": "tokenURI",
          "type": "string"
        }
      ],
      "name": "mintItem",
      "outputs": [
        {
          "internalType": "uint256",
          "name": "",
          "type": "uint256"
        }
      ],
      "stateMutability": "nonpayable",
      "type": "function"
    },
    {
      "inputs": [],
      "name": "mintingFee",
      "outputs": [
        {
          "internalType": "uint256",
          "name": "",
          "type": "uint256"
        }
      ],
      "stateMutability": "view",
      "type": "function"
    },
    {
      "inputs": [],
      "name": "name",
      "outputs": [
        {
          "internalType": "string",
          "name": "",
          "type": "string"
        }
      ],
      "stateMutability": "view",
      "type": "function"
    },
    {
      "inputs": [],
      "name": "owner",
      "outputs": [
        {
          "internalType": "address",
          "name": "",
          "type": "address"
        }
      ],
      "stateMutability": "view",
      "type": "function"
    },
    {
      "inputs": [
        {
          "internalType": "uint256",
          "name": "tokenId",
          "type": "uint256"
        }
      ],
      "name": "ownerOf",
      "outputs": [
        {
          "internalType": "address",
          "name": "",
          "type": "address"
        }
      ],
      "stateMutability": "view",
      "type": "function"
    },
    {
      "inputs": [],
      "name": "renounceOwnership",
      "outputs": [],
      "stateMutability": "nonpayable",
      "type": "function"
    },
    {
      "inputs": [
        {
          "internalType": "address",
          "name": "from",
          "type": "address"
        },
        {
          "internalType": "address",
          "name": "to",
          "type": "address"
        },
        {
          "internalType": "uint256",
          "name": "tokenId",
          "type": "uint256"
        }
      ],
      "name": "safeTransferFrom",
      "outputs": [],
      "stateMutability": "nonpayable",
      "type": "function"
    },
    {
      "inputs": [
        {
          "internalType": "address",
          "name": "from",
          "type": "address"
        },
        {
          "internalType": "address",
          "name": "to",
          "type": "address"
        },
        {
          "internalType": "uint256",
          "name": "tokenId",
          "type": "uint256"
        },
        {
          "internalType": "bytes",
          "name": "_data",
          "type": "bytes"
        }
      ],
      "name": "safeTransferFrom",
      "outputs": [],
      "stateMutability": "nonpayable",
      "type": "function"
    },
    {
      "inputs": [
        {
          "internalType": "address",
          "name": "operator",
          "type": "address"
        },
        {
          "internalType": "bool",
          "name": "approved",
          "type": "bool"
        }
      ],
      "name": "setApprovalForAll",
      "outputs": [],
      "stateMutability": "nonpayable",
      "type": "function"
    },
    {
      "inputs": [
        {
          "internalType": "bytes4",
          "name": "interfaceId",
          "type": "bytes4"
        }
      ],
      "name": "supportsInterface",
      "outputs": [
        {
          "internalType": "bool",
          "name": "",
          "type": "bool"
        }
      ],
      "stateMutability": "view",
      "type": "function"
    },
    {
      "inputs": [],
      "name": "symbol",
      "outputs": [
        {
          "internalType": "string",
          "name": "",
          "type": "string"
        }
      ],
      "stateMutability": "view",
      "type": "function"
    },
    {
      "inputs": [
        {
          "internalType": "uint256",
          "name": "index",
          "type": "uint256"
        }
      ],
      "name": "tokenByIndex",
      "outputs": [
        {
          "internalType": "uint256",
          "name": "",
          "type": "uint256"
        }
      ],
      "stateMutability": "view",
      "type": "function"
    },
    {
      "inputs": [
        {
          "internalType": "address",
          "name": "owner",
          "type": "address"
        },
        {
          "internalType": "uint256",
          "name": "index",
          "type": "uint256"
        }
      ],
      "name": "tokenOfOwnerByIndex",
      "outputs": [
        {
          "internalType": "uint256",
          "name": "",
          "type": "uint256"
        }
      ],
      "stateMutability": "view",
      "type": "function"
    },
    {
      "inputs": [
        {
          "internalType": "uint256",
          "name": "tokenId",
          "type": "uint256"
        }
      ],
      "name": "tokenURI",
      "outputs": [
        {
          "internalType": "string",
          "name": "",
          "type": "string"
        }
      ],
      "stateMutability": "view",
      "type": "function"
    },
    {
      "inputs": [],
      "name": "totalSupply",
      "outputs": [
        {
          "internalType": "uint256",
          "name": "",
          "type": "uint256"
        }
      ],
      "stateMutability": "view",
      "type": "function"
    },
    {
      "inputs": [
        {
          "internalType": "address",
          "name": "from",
          "type": "address"
        },
        {
          "internalType": "address",
          "name": "to",
          "type": "address"
        },
        {
          "internalType": "uint256",
          "name": "tokenId",
          "type": "uint256"
        }
      ],
      "name": "transferFrom",
      "outputs": [],
      "stateMutability": "nonpayable",
      "type": "function"
    },
    {
      "inputs": [
        {
          "internalType": "address",
          "name": "newOwner",
          "type": "address"
        }
      ],
      "name": "transferOwnership",
      "outputs": [],
      "stateMutability": "nonpayable",
      "type": "function"
    }
  ],
  "bytecode": "0x60806040526000600a60006101000a81548160ff0219169083151502179055506601c6bf52634000600f553480156200003757600080fd5b5060405162004bc138038062004bc183398181016040528101906200005d91906200048c565b81818160009080519060200190620000779291906200036a565b508060019080519060200190620000909291906200036a565b5050506000620000a56200015d60201b60201c565b905080600d60006101000a81548173ffffffffffffffffffffffffffffffffffffffff021916908373ffffffffffffffffffffffffffffffffffffffff1602179055508073ffffffffffffffffffffffffffffffffffffffff16600073ffffffffffffffffffffffffffffffffffffffff167f8be0079c531659141344cd1fd0a4f28419497f9722a3daafe3b4186f6b6457e060405160405180910390a35062000155826200017960201b60201c565b505062000762565b600062000174620001fb60201b6200195e1760201c565b905090565b600a60009054906101000a900460ff1615620001cc576040517f08c379a0000000000000000000000000000000000000000000000000000000008152600401620001c390620005c0565b60405180910390fd5b620001dd81620002ae60201b60201c565b6001600a60006101000a81548160ff02191690831515021790555050565b60003073ffffffffffffffffffffffffffffffffffffffff163373ffffffffffffffffffffffffffffffffffffffff161415620002a757600080368080601f016020809104026020016040519081016040528093929190818152602001838380828437600081840152601f19601f820116905080830192505050505050509050600080369050905073ffffffffffffffffffffffffffffffffffffffff818301511692505050620002ab565b3390505b90565b6040518060800160405280604f815260200162004b72604f91398051906020012081805190602001206040518060400160405280600181526020017f31000000000000000000000000000000000000000000000000000000000000008152508051906020012030620003256200035d60201b60201c565b60001b6040516020016200033e95949392919062000563565b60405160208183030381529060405280519060200120600b8190555050565b6000804690508091505090565b8280546200037890620006ce565b90600052602060002090601f0160209004810192826200039c5760008555620003e8565b82601f10620003b757805160ff1916838001178555620003e8565b82800160010185558215620003e8579182015b82811115620003e7578251825591602001919060010190620003ca565b5b509050620003f79190620003fb565b5090565b5b8082111562000416576000816000905550600101620003fc565b5090565b6000620004316200042b8462000616565b620005e2565b9050828152602081018484840111156200044a57600080fd5b6200045784828562000698565b509392505050565b600082601f8301126200047157600080fd5b8151620004838482602086016200041a565b91505092915050565b60008060408385031215620004a057600080fd5b600083015167ffffffffffffffff811115620004bb57600080fd5b620004c9858286016200045f565b925050602083015167ffffffffffffffff811115620004e757600080fd5b620004f5858286016200045f565b9150509250929050565b6200050a816200065a565b82525050565b6200051b816200066e565b82525050565b600062000530600e8362000649565b91507f616c726561647920696e697465640000000000000000000000000000000000006000830152602082019050919050565b600060a0820190506200057a600083018862000510565b62000589602083018762000510565b62000598604083018662000510565b620005a76060830185620004ff565b620005b6608083018462000510565b9695505050505050565b60006020820190508181036000830152620005db8162000521565b9050919050565b6000604051905081810181811067ffffffffffffffff821117156200060c576200060b62000733565b5b8060405250919050565b600067ffffffffffffffff82111562000634576200063362000733565b5b601f19601f8301169050602081019050919050565b600082825260208201905092915050565b6000620006678262000678565b9050919050565b6000819050919050565b600073ffffffffffffffffffffffffffffffffffffffff82169050919050565b60005b83811015620006b85780820151818401526020810190506200069b565b83811115620006c8576000848401525b50505050565b60006002820490506001821680620006e757607f821691505b60208210811415620006fe57620006fd62000704565b5b50919050565b7f4e487b7100000000000000000000000000000000000000000000000000000000600052602260045260246000fd5b7f4e487b7100000000000000000000000000000000000000000000000000000000600052604160045260246000fd5b61440080620007726000396000f3fe6080604052600436106101c25760003560e01c80635a64ad95116100f7578063a22cb46511610095578063e8a3d48511610064578063e8a3d48514610695578063e985e9c5146106c0578063f2fde38b146106fd578063f8b2cb4f14610726576101c2565b8063a22cb465146105c9578063b88d4fde146105f2578063c75458491461061b578063c87b56dd14610658576101c2565b806370a08231116100d157806370a082311461051f578063715018a61461055c5780638da5cb5b1461057357806395d89b411461059e576101c2565b80635a64ad951461047a5780635de6dc55146104a55780636352211e146104e2576101c2565b806320379ee5116101645780632f745c591161013e5780632f745c59146103ac5780633408e470146103e957806342842e0e146104145780634f6ccce71461043d576101c2565b806320379ee51461031b57806323b872dd146103465780632d0335ab1461036f576101c2565b8063095ea7b3116101a0578063095ea7b31461026c5780630c53c51c146102955780630f7e5970146102c557806318160ddd146102f0576101c2565b806301ffc9a7146101c757806306fdde0314610204578063081812fc1461022f575b600080fd5b3480156101d357600080fd5b506101ee60048036038101906101e99190612ef8565b610763565b6040516101fb9190613b49565b60405180910390f35b34801561021057600080fd5b506102196107dd565b6040516102269190613c2b565b60405180910390f35b34801561023b57600080fd5b5061025660048036038101906102519190612f8b565b61086f565b6040516102639190613aa4565b60405180910390f35b34801561027857600080fd5b50610293600480360381019061028e9190612ebc565b6108f4565b005b6102af60048036038101906102aa9190612e2d565b610a0c565b6040516102bc9190613c09565b60405180910390f35b3480156102d157600080fd5b506102da610c77565b6040516102e79190613c2b565b60405180910390f35b3480156102fc57600080fd5b50610305610cb0565b6040516103129190613eed565b60405180910390f35b34801561032757600080fd5b50610330610cbd565b60405161033d9190613b64565b60405180910390f35b34801561035257600080fd5b5061036d60048036038101906103689190612d27565b610cc7565b005b34801561037b57600080fd5b5061039660048036038101906103919190612cc2565b610d27565b6040516103a39190613eed565b60405180910390f35b3480156103b857600080fd5b506103d360048036038101906103ce9190612ebc565b610d70565b6040516103e09190613eed565b60405180910390f35b3480156103f557600080fd5b506103fe610e15565b60405161040b9190613eed565b60405180910390f35b34801561042057600080fd5b5061043b60048036038101906104369190612d27565b610e22565b005b34801561044957600080fd5b50610464600480360381019061045f9190612f8b565b610e42565b6040516104719190613eed565b60405180910390f35b34801561048657600080fd5b5061048f610ed9565b60405161049c9190613eed565b60405180910390f35b3480156104b157600080fd5b506104cc60048036038101906104c79190612cc2565b610edf565b6040516104d99190613c2b565b60405180910390f35b3480156104ee57600080fd5b5061050960048036038101906105049190612f8b565b611022565b6040516105169190613aa4565b60405180910390f35b34801561052b57600080fd5b5061054660048036038101906105419190612cc2565b6110d4565b6040516105539190613eed565b60405180910390f35b34801561056857600080fd5b5061057161118c565b005b34801561057f57600080fd5b506105886112c9565b6040516105959190613aa4565b60405180910390f35b3480156105aa57600080fd5b506105b36112f3565b6040516105c09190613c2b565b60405180910390f35b3480156105d557600080fd5b506105f060048036038101906105eb9190612df1565b611385565b005b3480156105fe57600080fd5b5061061960048036038101906106149190612d76565b611506565b005b34801561062757600080fd5b50610642600480360381019061063d9190612f4a565b611568565b60405161064f9190613eed565b60405180910390f35b34801561066457600080fd5b5061067f600480360381019061067a9190612f8b565b6115f6565b60405161068c9190613c2b565b60405180910390f35b3480156106a157600080fd5b506106aa6116e3565b6040516106b79190613c2b565b60405180910390f35b3480156106cc57600080fd5b506106e760048036038101906106e29190612ceb565b611703565b6040516106f49190613b49565b60405180910390f35b34801561070957600080fd5b50610724600480360381019061071f9190612cc2565b611769565b005b34801561073257600080fd5b5061074d60048036038101906107489190612cc2565b611915565b60405161075a9190613eed565b60405180910390f35b60007f780e9d63000000000000000000000000000000000000000000000000000000007bffffffffffffffffffffffffffffffffffffffffffffffffffffffff1916827bffffffffffffffffffffffffffffffffffffffffffffffffffffffff191614806107d657506107d582611a0f565b5b9050919050565b6060600080546107ec90614150565b80601f016020809104026020016040519081016040528092919081815260200182805461081890614150565b80156108655780601f1061083a57610100808354040283529160200191610865565b820191906000526020600020905b81548152906001019060200180831161084857829003601f168201915b5050505050905090565b600061087a82611af1565b6108b9576040517f08c379a00000000000000000000000000000000000000000000000000000000081526004016108b090613ded565b60405180910390fd5b6004600083815260200190815260200160002060009054906101000a900473ffffffffffffffffffffffffffffffffffffffff169050919050565b60006108ff82611022565b90508073ffffffffffffffffffffffffffffffffffffffff168373ffffffffffffffffffffffffffffffffffffffff161415610970576040517f08c379a000000000000000000000000000000000000000000000000000000000815260040161096790613e8d565b60405180910390fd5b8073ffffffffffffffffffffffffffffffffffffffff1661098f611b5d565b73ffffffffffffffffffffffffffffffffffffffff1614806109be57506109bd816109b8611b5d565b611703565b5b6109fd576040517f08c379a00000000000000000000000000000000000000000000000000000000081526004016109f490613d6d565b60405180910390fd5b610a078383611b6c565b505050565b606060006040518060600160405280600c60008a73ffffffffffffffffffffffffffffffffffffffff1673ffffffffffffffffffffffffffffffffffffffff1681526020019081526020016000205481526020018873ffffffffffffffffffffffffffffffffffffffff168152602001878152509050610a8f8782878787611c25565b610ace576040517f08c379a0000000000000000000000000000000000000000000000000000000008152600401610ac590613e4d565b60405180910390fd5b6001600c60008973ffffffffffffffffffffffffffffffffffffffff1673ffffffffffffffffffffffffffffffffffffffff16815260200190815260200160002054610b1a9190613fe7565b600c60008973ffffffffffffffffffffffffffffffffffffffff1673ffffffffffffffffffffffffffffffffffffffff168152602001908152602001600020819055507f5845892132946850460bff5a0083f71031bc5bf9aadcd40f1de79423eac9b10b873388604051610b9093929190613abf565b60405180910390a16000803073ffffffffffffffffffffffffffffffffffffffff16888a604051602001610bc59291906139c7565b604051602081830303815290604052604051610be191906139b0565b6000604051808303816000865af19150503d8060008114610c1e576040519150601f19603f3d011682016040523d82523d6000602084013e610c23565b606091505b509150915081610c68576040517f08c379a0000000000000000000000000000000000000000000000000000000008152600401610c5f90613cad565b60405180910390fd5b80935050505095945050505050565b6040518060400160405280600181526020017f310000000000000000000000000000000000000000000000000000000000000081525081565b6000600880549050905090565b6000600b54905090565b610cd8610cd2611b5d565b82611d2e565b610d17576040517f08c379a0000000000000000000000000000000000000000000000000000000008152600401610d0e90613ead565b60405180910390fd5b610d22838383611e0c565b505050565b6000600c60008373ffffffffffffffffffffffffffffffffffffffff1673ffffffffffffffffffffffffffffffffffffffff168152602001908152602001600020549050919050565b6000610d7b836110d4565b8210610dbc576040517f08c379a0000000000000000000000000000000000000000000000000000000008152600401610db390613c4d565b60405180910390fd5b600660008473ffffffffffffffffffffffffffffffffffffffff1673ffffffffffffffffffffffffffffffffffffffff168152602001908152602001600020600083815260200190815260200160002054905092915050565b6000804690508091505090565b610e3d83838360405180602001604052806000815250611506565b505050565b6000610e4c610cb0565b8210610e8d576040517f08c379a0000000000000000000000000000000000000000000000000000000008152600401610e8490613ecd565b60405180910390fd5b60088281548110610ec7577f4e487b7100000000000000000000000000000000000000000000000000000000600052603260045260246000fd5b90600052602060002001549050919050565b600f5481565b60606000610eec836110d4565b90506000811415610f35576040518060400160405280600281526020017f5b5d00000000000000000000000000000000000000000000000000000000000081525091505061101d565b60006040518060400160405280600181526020017f5b00000000000000000000000000000000000000000000000000000000000000815250905060005b82811015610ff4576000610f8e610f898784610d70565b6115f6565b90506000821115610fbc5782604051602001610faa91906139ef565b60405160208183030381529060405292505b8281604051602001610fcf929190613a11565b6040516020818303038152906040529250508080610fec90614182565b915050610f72565b50806040516020016110069190613a4b565b604051602081830303815290604052905080925050505b919050565b6000806002600084815260200190815260200160002060009054906101000a900473ffffffffffffffffffffffffffffffffffffffff169050600073ffffffffffffffffffffffffffffffffffffffff168173ffffffffffffffffffffffffffffffffffffffff1614156110cb576040517f08c379a00000000000000000000000000000000000000000000000000000000081526004016110c290613dad565b60405180910390fd5b80915050919050565b60008073ffffffffffffffffffffffffffffffffffffffff168273ffffffffffffffffffffffffffffffffffffffff161415611145576040517f08c379a000000000000000000000000000000000000000000000000000000000815260040161113c90613d8d565b60405180910390fd5b600360008373ffffffffffffffffffffffffffffffffffffffff1673ffffffffffffffffffffffffffffffffffffffff168152602001908152602001600020549050919050565b611194611b5d565b73ffffffffffffffffffffffffffffffffffffffff166111b26112c9565b73ffffffffffffffffffffffffffffffffffffffff1614611208576040517f08c379a00000000000000000000000000000000000000000000000000000000081526004016111ff90613e0d565b60405180910390fd5b600073ffffffffffffffffffffffffffffffffffffffff16600d60009054906101000a900473ffffffffffffffffffffffffffffffffffffffff1673ffffffffffffffffffffffffffffffffffffffff167f8be0079c531659141344cd1fd0a4f28419497f9722a3daafe3b4186f6b6457e060405160405180910390a36000600d60006101000a81548173ffffffffffffffffffffffffffffffffffffffff021916908373ffffffffffffffffffffffffffffffffffffffff160217905550565b6000600d60009054906101000a900473ffffffffffffffffffffffffffffffffffffffff16905090565b60606001805461130290614150565b80601f016020809104026020016040519081016040528092919081815260200182805461132e90614150565b801561137b5780601f106113505761010080835404028352916020019161137b565b820191906000526020600020905b81548152906001019060200180831161135e57829003601f168201915b5050505050905090565b61138d611b5d565b73ffffffffffffffffffffffffffffffffffffffff168273ffffffffffffffffffffffffffffffffffffffff1614156113fb576040517f08c379a00000000000000000000000000000000000000000000000000000000081526004016113f290613d0d565b60405180910390fd5b8060056000611408611b5d565b73ffffffffffffffffffffffffffffffffffffffff1673ffffffffffffffffffffffffffffffffffffffff16815260200190815260200160002060008473ffffffffffffffffffffffffffffffffffffffff1673ffffffffffffffffffffffffffffffffffffffff16815260200190815260200160002060006101000a81548160ff0219169083151502179055508173ffffffffffffffffffffffffffffffffffffffff166114b5611b5d565b73ffffffffffffffffffffffffffffffffffffffff167f17307eab39ab6107e8899845ad3d59bd9653f200f220920489ca2b5937696c31836040516114fa9190613b49565b60405180910390a35050565b611517611511611b5d565b83611d2e565b611556576040517f08c379a000000000000000000000000000000000000000000000000000000000815260040161154d90613ead565b60405180910390fd5b61156284848484612068565b50505050565b6000611574600e6120c4565b6000611580600e6120da565b905061158c33826120e8565b61159681846122b6565b6001601160003373ffffffffffffffffffffffffffffffffffffffff1673ffffffffffffffffffffffffffffffffffffffff16815260200190815260200160002060008282546115e69190613fe7565b9250508190555080915050919050565b606061160182611af1565b611640576040517f08c379a000000000000000000000000000000000000000000000000000000000815260040161163790613e6d565b60405180910390fd5b60106000838152602001908152602001600020805461165e90614150565b80601f016020809104026020016040519081016040528092919081815260200182805461168a90614150565b80156116d75780601f106116ac576101008083540402835291602001916116d7565b820191906000526020600020905b8154815290600101906020018083116116ba57829003601f168201915b50505050509050919050565b606060405180608001604052806059815260200161437260599139905090565b60007358807bad0b376efc12f5ad86aac70e78ed67deae73ffffffffffffffffffffffffffffffffffffffff168273ffffffffffffffffffffffffffffffffffffffff1614156117565760019050611763565b61176083836122e2565b90505b92915050565b611771611b5d565b73ffffffffffffffffffffffffffffffffffffffff1661178f6112c9565b73ffffffffffffffffffffffffffffffffffffffff16146117e5576040517f08c379a00000000000000000000000000000000000000000000000000000000081526004016117dc90613e0d565b60405180910390fd5b600073ffffffffffffffffffffffffffffffffffffffff168173ffffffffffffffffffffffffffffffffffffffff161415611855576040517f08c379a000000000000000000000000000000000000000000000000000000000815260040161184c90613c8d565b60405180910390fd5b8073ffffffffffffffffffffffffffffffffffffffff16600d60009054906101000a900473ffffffffffffffffffffffffffffffffffffffff1673ffffffffffffffffffffffffffffffffffffffff167f8be0079c531659141344cd1fd0a4f28419497f9722a3daafe3b4186f6b6457e060405160405180910390a380600d60006101000a81548173ffffffffffffffffffffffffffffffffffffffff021916908373ffffffffffffffffffffffffffffffffffffffff16021790555050565b6000601160008373ffffffffffffffffffffffffffffffffffffffff1673ffffffffffffffffffffffffffffffffffffffff168152602001908152602001600020549050919050565b60003073ffffffffffffffffffffffffffffffffffffffff163373ffffffffffffffffffffffffffffffffffffffff161415611a0857600080368080601f016020809104026020016040519081016040528093929190818152602001838380828437600081840152601f19601f820116905080830192505050505050509050600080369050905073ffffffffffffffffffffffffffffffffffffffff818301511692505050611a0c565b3390505b90565b60007f80ac58cd000000000000000000000000000000000000000000000000000000007bffffffffffffffffffffffffffffffffffffffffffffffffffffffff1916827bffffffffffffffffffffffffffffffffffffffffffffffffffffffff19161480611ada57507f5b5e139f000000000000000000000000000000000000000000000000000000007bffffffffffffffffffffffffffffffffffffffffffffffffffffffff1916827bffffffffffffffffffffffffffffffffffffffffffffffffffffffff1916145b80611aea5750611ae982612376565b5b9050919050565b60008073ffffffffffffffffffffffffffffffffffffffff166002600084815260200190815260200160002060009054906101000a900473ffffffffffffffffffffffffffffffffffffffff1673ffffffffffffffffffffffffffffffffffffffff1614159050919050565b6000611b6761195e565b905090565b816004600083815260200190815260200160002060006101000a81548173ffffffffffffffffffffffffffffffffffffffff021916908373ffffffffffffffffffffffffffffffffffffffff160217905550808273ffffffffffffffffffffffffffffffffffffffff16611bdf83611022565b73ffffffffffffffffffffffffffffffffffffffff167f8c5be1e5ebec7d5bd14f71427d1e84f3dd0314c0f7b2291e5b200ac8c7c3b92560405160405180910390a45050565b60008073ffffffffffffffffffffffffffffffffffffffff168673ffffffffffffffffffffffffffffffffffffffff161415611c96576040517f08c379a0000000000000000000000000000000000000000000000000000000008152600401611c8d90613d4d565b60405180910390fd5b6001611ca9611ca4876123e0565b612448565b83868660405160008152602001604052604051611cc99493929190613bc4565b6020604051602081039080840390855afa158015611ceb573d6000803e3d6000fd5b5050506020604051035173ffffffffffffffffffffffffffffffffffffffff168673ffffffffffffffffffffffffffffffffffffffff1614905095945050505050565b6000611d3982611af1565b611d78576040517f08c379a0000000000000000000000000000000000000000000000000000000008152600401611d6f90613d2d565b60405180910390fd5b6000611d8383611022565b90508073ffffffffffffffffffffffffffffffffffffffff168473ffffffffffffffffffffffffffffffffffffffff161480611df257508373ffffffffffffffffffffffffffffffffffffffff16611dda8461086f565b73ffffffffffffffffffffffffffffffffffffffff16145b80611e035750611e028185611703565b5b91505092915050565b8273ffffffffffffffffffffffffffffffffffffffff16611e2c82611022565b73ffffffffffffffffffffffffffffffffffffffff1614611e82576040517f08c379a0000000000000000000000000000000000000000000000000000000008152600401611e7990613e2d565b60405180910390fd5b600073ffffffffffffffffffffffffffffffffffffffff168273ffffffffffffffffffffffffffffffffffffffff161415611ef2576040517f08c379a0000000000000000000000000000000000000000000000000000000008152600401611ee990613ced565b60405180910390fd5b611efd838383612481565b611f08600082611b6c565b6001600360008573ffffffffffffffffffffffffffffffffffffffff1673ffffffffffffffffffffffffffffffffffffffff1681526020019081526020016000206000828254611f58919061403d565b925050819055506001600360008473ffffffffffffffffffffffffffffffffffffffff1673ffffffffffffffffffffffffffffffffffffffff1681526020019081526020016000206000828254611faf9190613fe7565b92505081905550816002600083815260200190815260200160002060006101000a81548173ffffffffffffffffffffffffffffffffffffffff021916908373ffffffffffffffffffffffffffffffffffffffff160217905550808273ffffffffffffffffffffffffffffffffffffffff168473ffffffffffffffffffffffffffffffffffffffff167fddf252ad1be2c89b69c2b068fc378daa952ba7f163c4a11628f55a4df523b3ef60405160405180910390a4505050565b612073848484611e0c565b61207f84848484612595565b6120be576040517f08c379a00000000000000000000000000000000000000000000000000000000081526004016120b590613c6d565b60405180910390fd5b50505050565b6001816000016000828254019250508190555050565b600081600001549050919050565b600073ffffffffffffffffffffffffffffffffffffffff168273ffffffffffffffffffffffffffffffffffffffff161415612158576040517f08c379a000000000000000000000000000000000000000000000000000000000815260040161214f90613dcd565b60405180910390fd5b61216181611af1565b156121a1576040517f08c379a000000000000000000000000000000000000000000000000000000000815260040161219890613ccd565b60405180910390fd5b6121ad60008383612481565b6001600360008473ffffffffffffffffffffffffffffffffffffffff1673ffffffffffffffffffffffffffffffffffffffff16815260200190815260200160002060008282546121fd9190613fe7565b92505081905550816002600083815260200190815260200160002060006101000a81548173ffffffffffffffffffffffffffffffffffffffff021916908373ffffffffffffffffffffffffffffffffffffffff160217905550808273ffffffffffffffffffffffffffffffffffffffff16600073ffffffffffffffffffffffffffffffffffffffff167fddf252ad1be2c89b69c2b068fc378daa952ba7f163c4a11628f55a4df523b3ef60405160405180910390a45050565b806010600084815260200190815260200160002090805190602001906122dd929190612abc565b505050565b6000600560008473ffffffffffffffffffffffffffffffffffffffff1673ffffffffffffffffffffffffffffffffffffffff16815260200190815260200160002060008373ffffffffffffffffffffffffffffffffffffffff1673ffffffffffffffffffffffffffffffffffffffff16815260200190815260200160002060009054906101000a900460ff16905092915050565b60007f01ffc9a7000000000000000000000000000000000000000000000000000000007bffffffffffffffffffffffffffffffffffffffffffffffffffffffff1916827bffffffffffffffffffffffffffffffffffffffffffffffffffffffff1916149050919050565b600060405180608001604052806043815260200161432f60439139805190602001208260000151836020015184604001518051906020012060405160200161242b9493929190613b7f565b604051602081830303815290604052805190602001209050919050565b6000612452610cbd565b82604051602001612464929190613a6d565b604051602081830303815290604052805190602001209050919050565b61248c83838361272c565b600073ffffffffffffffffffffffffffffffffffffffff168373ffffffffffffffffffffffffffffffffffffffff1614156124cf576124ca81612731565b61250e565b8173ffffffffffffffffffffffffffffffffffffffff168373ffffffffffffffffffffffffffffffffffffffff161461250d5761250c838261277a565b5b5b600073ffffffffffffffffffffffffffffffffffffffff168273ffffffffffffffffffffffffffffffffffffffff1614156125515761254c816128e7565b612590565b8273ffffffffffffffffffffffffffffffffffffffff168273ffffffffffffffffffffffffffffffffffffffff161461258f5761258e8282612a2a565b5b5b505050565b60006125b68473ffffffffffffffffffffffffffffffffffffffff16612aa9565b1561271f578373ffffffffffffffffffffffffffffffffffffffff1663150b7a026125df611b5d565b8786866040518563ffffffff1660e01b81526004016126019493929190613afd565b602060405180830381600087803b15801561261b57600080fd5b505af192505050801561264c57506040513d601f19601f820116820180604052508101906126499190612f21565b60015b6126cf573d806000811461267c576040519150601f19603f3d011682016040523d82523d6000602084013e612681565b606091505b506000815114156126c7576040517f08c379a00000000000000000000000000000000000000000000000000000000081526004016126be90613c6d565b60405180910390fd5b805181602001fd5b63150b7a0260e01b7bffffffffffffffffffffffffffffffffffffffffffffffffffffffff1916817bffffffffffffffffffffffffffffffffffffffffffffffffffffffff191614915050612724565b600190505b949350505050565b505050565b6008805490506009600083815260200190815260200160002081905550600881908060018154018082558091505060019003906000526020600020016000909190919091505550565b60006001612787846110d4565b612791919061403d565b9050600060076000848152602001908152602001600020549050818114612876576000600660008673ffffffffffffffffffffffffffffffffffffffff1673ffffffffffffffffffffffffffffffffffffffff168152602001908152602001600020600084815260200190815260200160002054905080600660008773ffffffffffffffffffffffffffffffffffffffff1673ffffffffffffffffffffffffffffffffffffffff168152602001908152602001600020600084815260200190815260200160002081905550816007600083815260200190815260200160002081905550505b6007600084815260200190815260200160002060009055600660008573ffffffffffffffffffffffffffffffffffffffff1673ffffffffffffffffffffffffffffffffffffffff16815260200190815260200160002060008381526020019081526020016000206000905550505050565b600060016008805490506128fb919061403d565b9050600060096000848152602001908152602001600020549050600060088381548110612951577f4e487b7100000000000000000000000000000000000000000000000000000000600052603260045260246000fd5b906000526020600020015490508060088381548110612999577f4e487b7100000000000000000000000000000000000000000000000000000000600052603260045260246000fd5b906000526020600020018190555081600960008381526020019081526020016000208190555060096000858152602001908152602001600020600090556008805480612a0e577f4e487b7100000000000000000000000000000000000000000000000000000000600052603160045260246000fd5b6001900381819060005260206000200160009055905550505050565b6000612a35836110d4565b905081600660008573ffffffffffffffffffffffffffffffffffffffff1673ffffffffffffffffffffffffffffffffffffffff168152602001908152602001600020600083815260200190815260200160002081905550806007600084815260200190815260200160002081905550505050565b600080823b905060008111915050919050565b828054612ac890614150565b90600052602060002090601f016020900481019282612aea5760008555612b31565b82601f10612b0357805160ff1916838001178555612b31565b82800160010185558215612b31579182015b82811115612b30578251825591602001919060010190612b15565b5b509050612b3e9190612b42565b5090565b5b80821115612b5b576000816000905550600101612b43565b5090565b6000612b72612b6d84613f39565b613f08565b905082815260208101848484011115612b8a57600080fd5b612b9584828561410e565b509392505050565b6000612bb0612bab84613f69565b613f08565b905082815260208101848484011115612bc857600080fd5b612bd384828561410e565b509392505050565b600081359050612bea816142a4565b92915050565b600081359050612bff816142bb565b92915050565b600081359050612c14816142d2565b92915050565b600081359050612c29816142e9565b92915050565b600081519050612c3e816142e9565b92915050565b600082601f830112612c5557600080fd5b8135612c65848260208601612b5f565b91505092915050565b600082601f830112612c7f57600080fd5b8135612c8f848260208601612b9d565b91505092915050565b600081359050612ca781614300565b92915050565b600081359050612cbc81614317565b92915050565b600060208284031215612cd457600080fd5b6000612ce284828501612bdb565b91505092915050565b60008060408385031215612cfe57600080fd5b6000612d0c85828601612bdb565b9250506020612d1d85828601612bdb565b9150509250929050565b600080600060608486031215612d3c57600080fd5b6000612d4a86828701612bdb565b9350506020612d5b86828701612bdb565b9250506040612d6c86828701612c98565b9150509250925092565b60008060008060808587031215612d8c57600080fd5b6000612d9a87828801612bdb565b9450506020612dab87828801612bdb565b9350506040612dbc87828801612c98565b925050606085013567ffffffffffffffff811115612dd957600080fd5b612de587828801612c44565b91505092959194509250565b60008060408385031215612e0457600080fd5b6000612e1285828601612bdb565b9250506020612e2385828601612bf0565b9150509250929050565b600080600080600060a08688031215612e4557600080fd5b6000612e5388828901612bdb565b955050602086013567ffffffffffffffff811115612e7057600080fd5b612e7c88828901612c44565b9450506040612e8d88828901612c05565b9350506060612e9e88828901612c05565b9250506080612eaf88828901612cad565b9150509295509295909350565b60008060408385031215612ecf57600080fd5b6000612edd85828601612bdb565b9250506020612eee85828601612c98565b9150509250929050565b600060208284031215612f0a57600080fd5b6000612f1884828501612c1a565b91505092915050565b600060208284031215612f3357600080fd5b6000612f4184828501612c2f565b91505092915050565b600060208284031215612f5c57600080fd5b600082013567ffffffffffffffff811115612f7657600080fd5b612f8284828501612c6e565b91505092915050565b600060208284031215612f9d57600080fd5b6000612fab84828501612c98565b91505092915050565b612fbd81614083565b82525050565b612fcc81614071565b82525050565b612fe3612fde82614071565b6141cb565b82525050565b612ff281614095565b82525050565b613001816140a1565b82525050565b613018613013826140a1565b6141dd565b82525050565b600061302982613f99565b6130338185613faf565b935061304381856020860161411d565b61304c81614286565b840191505092915050565b600061306282613f99565b61306c8185613fc0565b935061307c81856020860161411d565b80840191505092915050565b600061309382613fa4565b61309d8185613fcb565b93506130ad81856020860161411d565b6130b681614286565b840191505092915050565b60006130cc82613fa4565b6130d68185613fdc565b93506130e681856020860161411d565b80840191505092915050565b60006130ff602b83613fcb565b91507f455243373231456e756d657261626c653a206f776e657220696e646578206f7560008301527f74206f6620626f756e64730000000000000000000000000000000000000000006020830152604082019050919050565b6000613165603283613fcb565b91507f4552433732313a207472616e7366657220746f206e6f6e20455243373231526560008301527f63656976657220696d706c656d656e74657200000000000000000000000000006020830152604082019050919050565b60006131cb602683613fcb565b91507f4f776e61626c653a206e6577206f776e657220697320746865207a65726f206160008301527f64647265737300000000000000000000000000000000000000000000000000006020830152604082019050919050565b6000613231601c83613fcb565b91507f46756e6374696f6e2063616c6c206e6f74207375636365737366756c000000006000830152602082019050919050565b6000613271601c83613fcb565b91507f4552433732313a20746f6b656e20616c7265616479206d696e746564000000006000830152602082019050919050565b60006132b1600283613fdc565b91507f19010000000000000000000000000000000000000000000000000000000000006000830152600282019050919050565b60006132f1600183613fdc565b91507f2c000000000000000000000000000000000000000000000000000000000000006000830152600182019050919050565b6000613331602483613fcb565b91507f4552433732313a207472616e7366657220746f20746865207a65726f2061646460008301527f72657373000000000000000000000000000000000000000000000000000000006020830152604082019050919050565b6000613397601983613fcb565b91507f4552433732313a20617070726f766520746f2063616c6c6572000000000000006000830152602082019050919050565b60006133d7602c83613fcb565b91507f4552433732313a206f70657261746f7220717565727920666f72206e6f6e657860008301527f697374656e7420746f6b656e00000000000000000000000000000000000000006020830152604082019050919050565b600061343d602583613fcb565b91507f4e61746976654d6574615472616e73616374696f6e3a20494e56414c49445f5360008301527f49474e45520000000000000000000000000000000000000000000000000000006020830152604082019050919050565b60006134a3603883613fcb565b91507f4552433732313a20617070726f76652063616c6c6572206973206e6f74206f7760008301527f6e6572206e6f7220617070726f76656420666f7220616c6c00000000000000006020830152604082019050919050565b6000613509600183613fdc565b91507f22000000000000000000000000000000000000000000000000000000000000006000830152600182019050919050565b6000613549602a83613fcb565b91507f4552433732313a2062616c616e636520717565727920666f7220746865207a6560008301527f726f2061646472657373000000000000000000000000000000000000000000006020830152604082019050919050565b60006135af602983613fcb565b91507f4552433732313a206f776e657220717565727920666f72206e6f6e657869737460008301527f656e7420746f6b656e00000000000000000000000000000000000000000000006020830152604082019050919050565b6000613615602083613fcb565b91507f4552433732313a206d696e7420746f20746865207a65726f20616464726573736000830152602082019050919050565b6000613655602c83613fcb565b91507f4552433732313a20617070726f76656420717565727920666f72206e6f6e657860008301527f697374656e7420746f6b656e00000000000000000000000000000000000000006020830152604082019050919050565b60006136bb602083613fcb565b91507f4f776e61626c653a2063616c6c6572206973206e6f7420746865206f776e65726000830152602082019050919050565b60006136fb602983613fcb565b91507f4552433732313a207472616e73666572206f6620746f6b656e2074686174206960008301527f73206e6f74206f776e00000000000000000000000000000000000000000000006020830152604082019050919050565b6000613761602183613fcb565b91507f5369676e657220616e64207369676e617475726520646f206e6f74206d61746360008301527f68000000000000000000000000000000000000000000000000000000000000006020830152604082019050919050565b60006137c7602f83613fcb565b91507f4552433732314d657461646174613a2055524920717565727920666f72206e6f60008301527f6e6578697374656e7420746f6b656e00000000000000000000000000000000006020830152604082019050919050565b600061382d600183613fdc565b91507f5d000000000000000000000000000000000000000000000000000000000000006000830152600182019050919050565b600061386d602183613fcb565b91507f4552433732313a20617070726f76616c20746f2063757272656e74206f776e6560008301527f72000000000000000000000000000000000000000000000000000000000000006020830152604082019050919050565b60006138d3603183613fcb565b91507f4552433732313a207472616e736665722063616c6c6572206973206e6f74206f60008301527f776e6572206e6f7220617070726f7665640000000000000000000000000000006020830152604082019050919050565b6000613939602c83613fcb565b91507f455243373231456e756d657261626c653a20676c6f62616c20696e646578206f60008301527f7574206f6620626f756e647300000000000000000000000000000000000000006020830152604082019050919050565b61399b816140f7565b82525050565b6139aa81614101565b82525050565b60006139bc8284613057565b915081905092915050565b60006139d38285613057565b91506139df8284612fd2565b6014820191508190509392505050565b60006139fb82846130c1565b9150613a06826132e4565b915081905092915050565b6000613a1d82856130c1565b9150613a28826134fc565b9150613a3482846130c1565b9150613a3f826134fc565b91508190509392505050565b6000613a5782846130c1565b9150613a6282613820565b915081905092915050565b6000613a78826132a4565b9150613a848285613007565b602082019150613a948284613007565b6020820191508190509392505050565b6000602082019050613ab96000830184612fc3565b92915050565b6000606082019050613ad46000830186612fc3565b613ae16020830185612fb4565b8181036040830152613af3818461301e565b9050949350505050565b6000608082019050613b126000830187612fc3565b613b1f6020830186612fc3565b613b2c6040830185613992565b8181036060830152613b3e818461301e565b905095945050505050565b6000602082019050613b5e6000830184612fe9565b92915050565b6000602082019050613b796000830184612ff8565b92915050565b6000608082019050613b946000830187612ff8565b613ba16020830186613992565b613bae6040830185612fc3565b613bbb6060830184612ff8565b95945050505050565b6000608082019050613bd96000830187612ff8565b613be660208301866139a1565b613bf36040830185612ff8565b613c006060830184612ff8565b95945050505050565b60006020820190508181036000830152613c23818461301e565b905092915050565b60006020820190508181036000830152613c458184613088565b905092915050565b60006020820190508181036000830152613c66816130f2565b9050919050565b60006020820190508181036000830152613c8681613158565b9050919050565b60006020820190508181036000830152613ca6816131be565b9050919050565b60006020820190508181036000830152613cc681613224565b9050919050565b60006020820190508181036000830152613ce681613264565b9050919050565b60006020820190508181036000830152613d0681613324565b9050919050565b60006020820190508181036000830152613d268161338a565b9050919050565b60006020820190508181036000830152613d46816133ca565b9050919050565b60006020820190508181036000830152613d6681613430565b9050919050565b60006020820190508181036000830152613d8681613496565b9050919050565b60006020820190508181036000830152613da68161353c565b9050919050565b60006020820190508181036000830152613dc6816135a2565b9050919050565b60006020820190508181036000830152613de681613608565b9050919050565b60006020820190508181036000830152613e0681613648565b9050919050565b60006020820190508181036000830152613e26816136ae565b9050919050565b60006020820190508181036000830152613e46816136ee565b9050919050565b60006020820190508181036000830152613e6681613754565b9050919050565b60006020820190508181036000830152613e86816137ba565b9050919050565b60006020820190508181036000830152613ea681613860565b9050919050565b60006020820190508181036000830152613ec6816138c6565b9050919050565b60006020820190508181036000830152613ee68161392c565b9050919050565b6000602082019050613f026000830184613992565b92915050565b6000604051905081810181811067ffffffffffffffff82111715613f2f57613f2e614257565b5b8060405250919050565b600067ffffffffffffffff821115613f5457613f53614257565b5b601f19601f8301169050602081019050919050565b600067ffffffffffffffff821115613f8457613f83614257565b5b601f19601f8301169050602081019050919050565b600081519050919050565b600081519050919050565b600082825260208201905092915050565b600081905092915050565b600082825260208201905092915050565b600081905092915050565b6000613ff2826140f7565b9150613ffd836140f7565b9250827fffffffffffffffffffffffffffffffffffffffffffffffffffffffffffffffff03821115614032576140316141f9565b5b828201905092915050565b6000614048826140f7565b9150614053836140f7565b925082821015614066576140656141f9565b5b828203905092915050565b600061407c826140d7565b9050919050565b600061408e826140d7565b9050919050565b60008115159050919050565b6000819050919050565b60007fffffffff0000000000000000000000000000000000000000000000000000000082169050919050565b600073ffffffffffffffffffffffffffffffffffffffff82169050919050565b6000819050919050565b600060ff82169050919050565b82818337600083830152505050565b60005b8381101561413b578082015181840152602081019050614120565b8381111561414a576000848401525b50505050565b6000600282049050600182168061416857607f821691505b6020821081141561417c5761417b614228565b5b50919050565b600061418d826140f7565b91507fffffffffffffffffffffffffffffffffffffffffffffffffffffffffffffffff8214156141c0576141bf6141f9565b5b600182019050919050565b60006141d6826141e7565b9050919050565b6000819050919050565b60006141f282614297565b9050919050565b7f4e487b7100000000000000000000000000000000000000000000000000000000600052601160045260246000fd5b7f4e487b7100000000000000000000000000000000000000000000000000000000600052602260045260246000fd5b7f4e487b7100000000000000000000000000000000000000000000000000000000600052604160045260246000fd5b6000601f19601f8301169050919050565b60008160601b9050919050565b6142ad81614071565b81146142b857600080fd5b50565b6142c481614095565b81146142cf57600080fd5b50565b6142db816140a1565b81146142e657600080fd5b50565b6142f2816140ab565b81146142fd57600080fd5b50565b614309816140f7565b811461431457600080fd5b50565b61432081614101565b811461432b57600080fd5b5056fe4d6574615472616e73616374696f6e2875696e74323536206e6f6e63652c616464726573732066726f6d2c62797465732066756e6374696f6e5369676e61747572652968747470733a2f2f6261666b7265696234666635357232766f62627879737575326f716970656673706c6f697a666367616d766d68786d78696c34716c77796a326b712e697066732e6e667473746f726167652e6c696e6b2fa2646970667358221220c1ea1250c7d8e6916af39ed4c5a294eddae37500d8c50380deda065821f6b54a64736f6c63430008000033454950373132446f6d61696e28737472696e67206e616d652c737472696e672076657273696f6e2c6164647265737320766572696679696e67436f6e74726163742c627974657333322073616c7429",
  "linkReferences": {},
  "deployedLinkReferences": {}
}